{
  "contractName": "DappToken",
  "abi": [
    {
      "constant": true,
      "inputs": [],
      "name": "totalSupply",
      "outputs": [
        {
          "name": "",
          "type": "uint256"
        }
      ],
      "payable": false,
      "stateMutability": "view",
      "type": "function",
      "signature": "0x18160ddd"
    },
    {
      "inputs": [],
      "payable": false,
      "stateMutability": "nonpayable",
      "type": "constructor",
      "signature": "constructor"
    }
  ],
  "bytecode": "0x608060405234801561001057600080fd5b50620f4240600081905550609e806100296000396000f3fe608060405260043610603f576000357c0100000000000000000000000000000000000000000000000000000000900463ffffffff16806318160ddd146044575b600080fd5b348015604f57600080fd5b506056606c565b6040518082815260200191505060405180910390f35b6000548156fea165627a7a72305820163edad2c0a2186883d06483d04f9663053616b7939a3ba0ffbdc94b83fab68a0029",
  "source": "// ERC20 Standard\n// Declare the version of solidity\n\npragma solidity ^0.5.0;\n\ncontract DappToken {\n  // Create test \n  // Initialize the smart contract with the number of tokens available\n  // Constructor\n  // Set the tokens \n  // Read the total number of tokens\n  uint256 public totalSupply; //Unsigned integer 256, it is part of the standars\n\n  constructor() public {\n    totalSupply = 1000000; //State variable, it will write to storage\n  }\n}",
  "sourcePath": "C:/Users/arath/OneDrive/Escritorio/development/ethereum/contracts/DappToken.sol",
  "compiler": {
    "name": "solc",
    "version": "0.5.0+commit.1d4f565a.Emscripten.clang"
  },
  "schemaVersion": "3.0.6",
  "updatedAt": "2019-04-08T23:12:56.151Z",
  "devdoc": {
    "methods": {}
  },
  "userdoc": {
    "methods": {}
  }
}